{
  "_format": "hh-sol-artifact-1",
  "contractName": "ProductTrace",
  "sourceName": "contracts/ProductTrace.sol",
  "abi": [
    {
      "anonymous": false,
      "inputs": [
        {
          "indexed": false,
          "internalType": "string",
          "name": "productId",
          "type": "string"
        },
        {
          "indexed": false,
          "internalType": "address",
          "name": "user",
          "type": "address"
        },
        {
          "indexed": false,
          "internalType": "string",
          "name": "destination",
          "type": "string"
        },
        {
          "indexed": false,
          "internalType": "uint256",
          "name": "createdAt",
          "type": "uint256"
        }
      ],
      "name": "DistributorAdded",
      "type": "event"
    },
    {
      "anonymous": false,
      "inputs": [
        {
          "indexed": false,
          "internalType": "string",
          "name": "id",
          "type": "string"
        },
        {
          "indexed": false,
          "internalType": "string",
          "name": "name",
          "type": "string"
        },
        {
          "indexed": false,
          "internalType": "string",
          "name": "material",
          "type": "string"
        },
        {
          "indexed": false,
          "internalType": "uint256",
          "name": "createdAt",
          "type": "uint256"
        }
      ],
      "name": "ProductAdded",
      "type": "event"
    },
    {
      "anonymous": false,
      "inputs": [
        {
          "indexed": false,
          "internalType": "string",
          "name": "productId",
          "type": "string"
        },
        {
          "indexed": false,
          "internalType": "string",
          "name": "stageName",
          "type": "string"
        },
        {
          "indexed": false,
          "internalType": "uint256",
          "name": "createdAt",
          "type": "uint256"
        }
      ],
      "name": "StageAdded",
      "type": "event"
    },
    {
      "inputs": [
        {
          "internalType": "string",
          "name": "_productId",
          "type": "string"
        },
        {
          "internalType": "string",
          "name": "_destination",
          "type": "string"
        }
      ],
      "name": "addDistributor",
      "outputs": [],
      "stateMutability": "nonpayable",
      "type": "function"
    },
    {
      "inputs": [
        {
          "internalType": "string",
          "name": "_id",
          "type": "string"
        },
        {
          "internalType": "string",
          "name": "_name",
          "type": "string"
        },
        {
          "internalType": "string",
          "name": "_material",
          "type": "string"
        }
      ],
      "name": "addProduct",
      "outputs": [],
      "stateMutability": "nonpayable",
      "type": "function"
    },
    {
      "inputs": [
        {
          "internalType": "string",
          "name": "_productId",
          "type": "string"
        },
        {
          "internalType": "string",
          "name": "_stageName",
          "type": "string"
        }
      ],
      "name": "addProductionStage",
      "outputs": [],
      "stateMutability": "nonpayable",
      "type": "function"
    },
    {
      "inputs": [
        {
          "internalType": "string",
          "name": "_productId",
          "type": "string"
        }
      ],
      "name": "getAllDistributors",
      "outputs": [
        {
          "internalType": "address[]",
          "name": "users",
          "type": "address[]"
        },
        {
          "internalType": "string[]",
          "name": "destinations",
          "type": "string[]"
        },
        {
          "internalType": "uint256[]",
          "name": "timestamps",
          "type": "uint256[]"
        }
      ],
      "stateMutability": "view",
      "type": "function"
    },
    {
      "inputs": [],
      "name": "getAllProductIds",
      "outputs": [
        {
          "internalType": "string[]",
          "name": "",
          "type": "string[]"
        }
      ],
      "stateMutability": "view",
      "type": "function"
    },
    {
      "inputs": [
        {
          "internalType": "string",
          "name": "_productId",
          "type": "string"
        }
      ],
      "name": "getAllStages",
      "outputs": [
        {
          "internalType": "string[]",
          "name": "names",
          "type": "string[]"
        },
        {
          "internalType": "uint256[]",
          "name": "timestamps",
          "type": "uint256[]"
        }
      ],
      "stateMutability": "view",
      "type": "function"
    },
    {
      "inputs": [
        {
          "internalType": "string",
          "name": "_id",
          "type": "string"
        }
      ],
      "name": "getProduct",
      "outputs": [
        {
          "internalType": "string",
          "name": "name",
          "type": "string"
        },
        {
          "internalType": "string",
          "name": "material",
          "type": "string"
        },
        {
          "internalType": "uint256",
          "name": "createdAt",
          "type": "uint256"
        },
        {
          "internalType": "uint256",
          "name": "totalStages",
          "type": "uint256"
        },
        {
          "internalType": "uint256",
          "name": "totalDistributors",
          "type": "uint256"
        }
      ],
      "stateMutability": "view",
      "type": "function"
    },
    {
      "inputs": [
        {
          "internalType": "string",
          "name": "_productId",
          "type": "string"
        }
      ],
      "name": "getProductionStageCount",
      "outputs": [
        {
          "internalType": "uint256",
          "name": "",
          "type": "uint256"
        }
      ],
      "stateMutability": "view",
      "type": "function"
    }
  ],
  "bytecode": "0x608060405234801561001057600080fd5b50611b12806100206000396000f3fe608060405234801561001057600080fd5b50600436106100885760003560e01c8063a41d4fa51161005b578063a41d4fa51461012d578063d712ddb01461015e578063dc2fdb141461017a578063f1076c121461019657610088565b80630e34b00e1461008d5780632bd50b35146100a9578063663c01af146100db57806368111cce146100f9575b600080fd5b6100a760048036038101906100a29190610ee5565b6101c6565b005b6100c360048036038101906100be9190610f8c565b61030d565b6040516100d2939291906112ce565b60405180910390f35b6100e36105f7565b6040516100f0919061131a565b60405180910390f35b610113600480360381019061010e9190610f8c565b6106d0565b604051610124959493929190611395565b60405180910390f35b61014760048036038101906101429190610f8c565b610895565b6040516101559291906113f6565b60405180910390f35b6101786004803603810190610173919061142d565b610a9b565b005b610194600480360381019061018f919061142d565b610bca565b005b6101b060048036038101906101ab9190610f8c565b610d5e565b6040516101bd91906114a5565b60405180910390f35b600080846040516101d791906114fc565b908152602001604051809103902060000180546101f390611542565b905014610235576040517f08c379a000000000000000000000000000000000000000000000000000000000815260040161022c906115bf565b60405180910390fd5b6000808460405161024691906114fc565b9081526020016040518091039020905083816000019081610267919061178b565b5082816001019081610279919061178b565b508181600201908161028b919061178b565b504281600301819055506001849080600181540180825580915050600190039060005260206000200160009091909190915090816102c9919061178b565b507f225da28c3fbf5026f4190247be9cfb3606c5ab12c4c486131b1f936bc6da46cf848484426040516102ff949392919061185d565b60405180910390a150505050565b60608060606000808560405161032391906114fc565b908152602001604051809103902090506000816005018054905090508067ffffffffffffffff81111561035957610358610dba565b5b6040519080825280602002602001820160405280156103875781602001602082028036833780820191505090505b5094508067ffffffffffffffff8111156103a4576103a3610dba565b5b6040519080825280602002602001820160405280156103d757816020015b60608152602001906001900390816103c25790505b5093508067ffffffffffffffff8111156103f4576103f3610dba565b5b6040519080825280602002602001820160405280156104225781602001602082028036833780820191505090505b50925060005b818110156105ed57826005018181548110610446576104456118b7565b5b906000526020600020906003020160000160009054906101000a900473ffffffffffffffffffffffffffffffffffffffff1686828151811061048b5761048a6118b7565b5b602002602001019073ffffffffffffffffffffffffffffffffffffffff16908173ffffffffffffffffffffffffffffffffffffffff16815250508260050181815481106104db576104da6118b7565b5b906000526020600020906003020160010180546104f790611542565b80601f016020809104026020016040519081016040528092919081815260200182805461052390611542565b80156105705780601f1061054557610100808354040283529160200191610570565b820191906000526020600020905b81548152906001019060200180831161055357829003601f168201915b5050505050858281518110610588576105876118b7565b5b60200260200101819052508260050181815481106105a9576105a86118b7565b5b9060005260206000209060030201600201548482815181106105ce576105cd6118b7565b5b60200260200101818152505080806105e590611915565b915050610428565b5050509193909250565b60606001805480602002602001604051908101604052809291908181526020016000905b828210156106c757838290600052602060002001805461063a90611542565b80601f016020809104026020016040519081016040528092919081815260200182805461066690611542565b80156106b35780601f10610688576101008083540402835291602001916106b3565b820191906000526020600020905b81548152906001019060200180831161069657829003601f168201915b50505050508152602001906001019061061b565b50505050905090565b6060806000806000806000876040516106e991906114fc565b90815260200160405180910390209050600081600001805461070a90611542565b90500361074c576040517f08c379a0000000000000000000000000000000000000000000000000000000008152600401610743906119a9565b60405180910390fd5b806001018160020182600301548360040180549050846005018054905084805461077590611542565b80601f01602080910402602001604051908101604052809291908181526020018280546107a190611542565b80156107ee5780601f106107c3576101008083540402835291602001916107ee565b820191906000526020600020905b8154815290600101906020018083116107d157829003601f168201915b5050505050945083805461080190611542565b80601f016020809104026020016040519081016040528092919081815260200182805461082d90611542565b801561087a5780601f1061084f5761010080835404028352916020019161087a565b820191906000526020600020905b81548152906001019060200180831161085d57829003601f168201915b50505050509350955095509550955095505091939590929450565b606080600080846040516108a991906114fc565b908152602001604051809103902090506000816004018054905090508067ffffffffffffffff8111156108df576108de610dba565b5b60405190808252806020026020018201604052801561091257816020015b60608152602001906001900390816108fd5790505b5093508067ffffffffffffffff81111561092f5761092e610dba565b5b60405190808252806020026020018201604052801561095d5781602001602082028036833780820191505090505b50925060005b81811015610a9357826004018181548110610981576109806118b7565b5b9060005260206000209060020201600001805461099d90611542565b80601f01602080910402602001604051908101604052809291908181526020018280546109c990611542565b8015610a165780601f106109eb57610100808354040283529160200191610a16565b820191906000526020600020905b8154815290600101906020018083116109f957829003601f168201915b5050505050858281518110610a2e57610a2d6118b7565b5b6020026020010181905250826004018181548110610a4f57610a4e6118b7565b5b906000526020600020906002020160010154848281518110610a7457610a736118b7565b5b6020026020010181815250508080610a8b90611915565b915050610963565b505050915091565b60008083604051610aac91906114fc565b90815260200160405180910390206000018054610ac890611542565b905003610b0a576040517f08c379a0000000000000000000000000000000000000000000000000000000008152600401610b0190611a15565b60405180910390fd5b600082604051610b1a91906114fc565b908152602001604051809103902060040160405180604001604052808381526020014281525090806001815401808255809150506001900390600052602060002090600202016000909190919091506000820151816000019081610b7e919061178b565b506020820151816001015550507fc4afac2a36f0bc82c86a39399ef56c1f935f7be0535306877af726dba261c712828242604051610bbe93929190611a35565b60405180910390a15050565b60008083604051610bdb91906114fc565b90815260200160405180910390206000018054610bf790611542565b905003610c39576040517f08c379a0000000000000000000000000000000000000000000000000000000008152600401610c3090611a15565b60405180910390fd5b600082604051610c4991906114fc565b908152602001604051809103902060050160405180606001604052803373ffffffffffffffffffffffffffffffffffffffff16815260200183815260200142815250908060018154018082558091505060019003906000526020600020906003020160009091909190915060008201518160000160006101000a81548173ffffffffffffffffffffffffffffffffffffffff021916908373ffffffffffffffffffffffffffffffffffffffff1602179055506020820151816001019081610d10919061178b565b506040820151816002015550507f8bbba715001ad1416dad81f21d7b5e5ec9ff85ab606235a8995db1b3ad14a13a82338342604051610d529493929190611a89565b60405180910390a15050565b60008082604051610d6f91906114fc565b9081526020016040518091039020600401805490509050919050565b6000604051905090565b600080fd5b600080fd5b600080fd5b600080fd5b6000601f19601f8301169050919050565b7f4e487b7100000000000000000000000000000000000000000000000000000000600052604160045260246000fd5b610df282610da9565b810181811067ffffffffffffffff82111715610e1157610e10610dba565b5b80604052505050565b6000610e24610d8b565b9050610e308282610de9565b919050565b600067ffffffffffffffff821115610e5057610e4f610dba565b5b610e5982610da9565b9050602081019050919050565b82818337600083830152505050565b6000610e88610e8384610e35565b610e1a565b905082815260208101848484011115610ea457610ea3610da4565b5b610eaf848285610e66565b509392505050565b600082601f830112610ecc57610ecb610d9f565b5b8135610edc848260208601610e75565b91505092915050565b600080600060608486031215610efe57610efd610d95565b5b600084013567ffffffffffffffff811115610f1c57610f1b610d9a565b5b610f2886828701610eb7565b935050602084013567ffffffffffffffff811115610f4957610f48610d9a565b5b610f5586828701610eb7565b925050604084013567ffffffffffffffff811115610f7657610f75610d9a565b5b610f8286828701610eb7565b9150509250925092565b600060208284031215610fa257610fa1610d95565b5b600082013567ffffffffffffffff811115610fc057610fbf610d9a565b5b610fcc84828501610eb7565b91505092915050565b600081519050919050565b600082825260208201905092915050565b6000819050602082019050919050565b600073ffffffffffffffffffffffffffffffffffffffff82169050919050565b600061102c82611001565b9050919050565b61103c81611021565b82525050565b600061104e8383611033565b60208301905092915050565b6000602082019050919050565b600061107282610fd5565b61107c8185610fe0565b935061108783610ff1565b8060005b838110156110b857815161109f8882611042565b97506110aa8361105a565b92505060018101905061108b565b5085935050505092915050565b600081519050919050565b600082825260208201905092915050565b6000819050602082019050919050565b600081519050919050565b600082825260208201905092915050565b60005b8381101561112b578082015181840152602081019050611110565b60008484015250505050565b6000611142826110f1565b61114c81856110fc565b935061115c81856020860161110d565b61116581610da9565b840191505092915050565b600061117c8383611137565b905092915050565b6000602082019050919050565b600061119c826110c5565b6111a681856110d0565b9350836020820285016111b8856110e1565b8060005b858110156111f457848403895281516111d58582611170565b94506111e083611184565b925060208a019950506001810190506111bc565b50829750879550505050505092915050565b600081519050919050565b600082825260208201905092915050565b6000819050602082019050919050565b6000819050919050565b61124581611232565b82525050565b6000611257838361123c565b60208301905092915050565b6000602082019050919050565b600061127b82611206565b6112858185611211565b935061129083611222565b8060005b838110156112c15781516112a8888261124b565b97506112b383611263565b925050600181019050611294565b5085935050505092915050565b600060608201905081810360008301526112e88186611067565b905081810360208301526112fc8185611191565b905081810360408301526113108184611270565b9050949350505050565b600060208201905081810360008301526113348184611191565b905092915050565b600082825260208201905092915050565b6000611358826110f1565b611362818561133c565b935061137281856020860161110d565b61137b81610da9565b840191505092915050565b61138f81611232565b82525050565b600060a08201905081810360008301526113af818861134d565b905081810360208301526113c3818761134d565b90506113d26040830186611386565b6113df6060830185611386565b6113ec6080830184611386565b9695505050505050565b600060408201905081810360008301526114108185611191565b905081810360208301526114248184611270565b90509392505050565b6000806040838503121561144457611443610d95565b5b600083013567ffffffffffffffff81111561146257611461610d9a565b5b61146e85828601610eb7565b925050602083013567ffffffffffffffff81111561148f5761148e610d9a565b5b61149b85828601610eb7565b9150509250929050565b60006020820190506114ba6000830184611386565b92915050565b600081905092915050565b60006114d6826110f1565b6114e081856114c0565b93506114f081856020860161110d565b80840191505092915050565b600061150882846114cb565b915081905092915050565b7f4e487b7100000000000000000000000000000000000000000000000000000000600052602260045260246000fd5b6000600282049050600182168061155a57607f821691505b60208210810361156d5761156c611513565b5b50919050565b7f50726f6475637420616c72656164792065786973747300000000000000000000600082015250565b60006115a960168361133c565b91506115b482611573565b602082019050919050565b600060208201905081810360008301526115d88161159c565b9050919050565b60008190508160005260206000209050919050565b60006020601f8301049050919050565b600082821b905092915050565b6000600883026116417fffffffffffffffffffffffffffffffffffffffffffffffffffffffffffffffff82611604565b61164b8683611604565b95508019841693508086168417925050509392505050565b6000819050919050565b600061168861168361167e84611232565b611663565b611232565b9050919050565b6000819050919050565b6116a28361166d565b6116b66116ae8261168f565b848454611611565b825550505050565b600090565b6116cb6116be565b6116d6818484611699565b505050565b5b818110156116fa576116ef6000826116c3565b6001810190506116dc565b5050565b601f82111561173f57611710816115df565b611719846115f4565b81016020851015611728578190505b61173c611734856115f4565b8301826116db565b50505b505050565b600082821c905092915050565b600061176260001984600802611744565b1980831691505092915050565b600061177b8383611751565b9150826002028217905092915050565b611794826110f1565b67ffffffffffffffff8111156117ad576117ac610dba565b5b6117b78254611542565b6117c28282856116fe565b600060209050601f8311600181146117f557600084156117e3578287015190505b6117ed858261176f565b865550611855565b601f198416611803866115df565b60005b8281101561182b57848901518255600182019150602085019450602081019050611806565b868310156118485784890151611844601f891682611751565b8355505b6001600288020188555050505b505050505050565b60006080820190508181036000830152611877818761134d565b9050818103602083015261188b818661134d565b9050818103604083015261189f818561134d565b90506118ae6060830184611386565b95945050505050565b7f4e487b7100000000000000000000000000000000000000000000000000000000600052603260045260246000fd5b7f4e487b7100000000000000000000000000000000000000000000000000000000600052601160045260246000fd5b600061192082611232565b91507fffffffffffffffffffffffffffffffffffffffffffffffffffffffffffffffff8203611952576119516118e6565b5b600182019050919050565b7f50726f64756374206e6f7420666f756e64000000000000000000000000000000600082015250565b600061199360118361133c565b915061199e8261195d565b602082019050919050565b600060208201905081810360008301526119c281611986565b9050919050565b7f50726f6475637420646f6573206e6f7420657869737400000000000000000000600082015250565b60006119ff60168361133c565b9150611a0a826119c9565b602082019050919050565b60006020820190508181036000830152611a2e816119f2565b9050919050565b60006060820190508181036000830152611a4f818661134d565b90508181036020830152611a63818561134d565b9050611a726040830184611386565b949350505050565b611a8381611021565b82525050565b60006080820190508181036000830152611aa3818761134d565b9050611ab26020830186611a7a565b8181036040830152611ac4818561134d565b9050611ad36060830184611386565b9594505050505056fea2646970667358221220f0940c4f67918e5115b001058c4cc65ee7b1dd2b25c0093433e5a832ba0f422264736f6c63430008140033",
  "linkReferences": {},
  "deployedLinkReferences": {}
}